S01E00006865616C74685F6D6F6E74696F725F70726F6A6563742E73726563D3
S11300000C942A000C943F000C943F000C943F0085
S11300100C943F000C943F000C943F000C943F0060
S11300200C943F000C943F000C943F000C943F0050
S11300300C943F000C943F000C943F000C943F0040
S11300400C943F000C943F000C943F000C943F0030
S11300500C943F0011241FBECFE5D8E0DEBFCDBF16
S113006010E0A0E6B0E0E0EEF8E002C005900D92EA
S1130070A237B107D9F70E94BC010C946E040C940A
S1130080000010B888E480B9089586B7846A86BFF2
S113009006B607FEFDCF81B1887F8830E1F7089569
S11300A083B986B7846886BF06B607FEFDCF81B1E3
S11300B0887F8831E1F7089583B986B7846886BF5D
S11300C006B607FEFDCF81B1887F8832E1F7089537
S11300D086B7846A86BF06B607FEFDCF81B1887FE6
S11300E08031E1F7089583B986B7846886BF06B680
S11300F007FEFDCF81B1887F8034E1F7089586B78C
S1130100846886BF06B607FEFDCF81B1887F80353F
S1130110E1F783B1089586B7846986BF08959BB3D8
S11301209F70282F207F922B9BBBC198C39AEFE32B
S1130130FFE13197F1F700C00000C398EFEDFEE254
S11301403197F1F700C000002BB32F70F0E18F9FBF
S1130150C0011124822B8BBBC39A8FE39FE10197CB
S1130160F1F700C00000C398EFEDFEE23197F1F71C
S113017000C0000008959BB39F70282F207F922B0E
S11301809BBBC19AC39AEFE3FFE13197F1F700C03B
S11301900000C398EFEDFEE23197F1F700C00000D4
S11301A02BB32F70F0E18F9FC0011124822B8BBBE6
S11301B0C39A8FE39FE10197F1F700C00000C39851
S11301C0EFEDFEE23197F1F700C000000895CF9300
S11301D0DF93EC018881882331F021960E94BB00D3
S11301E089918111FBCFDF91CF91089581E00E9425
S11301F08F008FE39FE10197F1F700C0000080E8D2
S11302000E948F0008958FEF8ABB87BBC2988FEF3F
S11302109CE70197F1F700C0000083E30E948F0080
S113022082E30E948F0088E20E948F008CE00E948B
S11302308F0086E00E948F0081E00E948F00089565
S1130240CF93DF93EC019C01329522952F702327E5
S11302503F702327A7E4B3E00E945F049695879537
S11302609695879596958795805D0E94BB009E0123
S1130270369527953695279536952795A5ECB0E2C2
S11302800E945F04AC01529542954F7045275F7000
S113029045279A01ADECBCEC0E945F0496958795C6
S11302A096958795969587959C01220F331F880F05
S11302B0991F880F991F880F991F820F931F9A0106
S11302C0281B390BC901805D0E94BB009E01369535
S11302D0279536952795ABE7B4E10E945F04AC01FE
S11302E0569547959A01ADECBCEC0E945F04969537
S11302F0879596958795969587959C01220F331F30
S1130300880F991F880F991F880F991F820F931FB9
S11303109A01281B390BC901805D0E94BB008EE243
S11303200E94BB009E01ADECBCEC0E945F04AC01DA
S11303305695479556954795569547959A010E9427
S11303405F049695879596958795969587959C01D4
S1130350220F331F880F991F880F991F880F991F29
S1130360820F931F9A01281B390BC901805D0E94DB
S1130370BB00DF91CF9108950E944100A29AA09AF8
S1130380A19A0E94030188E40E9422028FE39CE95F
S11303900197F1F700C0000080E80E948F0080E61A
S11303A090E00E94E7009FEF23ED30E3915020405E
S11303B03040E1F700C000000E94F60067E08AE5E3
S11303C00E942502C4E067E08AE50E946D0225B31D
S11303D02C2725BB4FEF23EC39E04150204030401F
S11303E0E1F700C000004FEF29EF30E0415020401A
S11303F03040E1F700C000002AE037ED43EA5CE357
S11304000E94F20323E333E948E853E40E94C8025C
S11304106B017C0180E80E948F0086E690E00E94D8
S1130420E70080EC0E948F0020E030E048EC52E4CA
S1130430C701B6010E94F2030E943503CB010E945A
S11304402001C1CF80B911B80895CF93DF93C82F8D
S1130450D62F0E9445008FE99FE00197F1F700C075
S113046000008C2F0E94500085B3C4E08C2785BB0C
S11304709FEF23EC89E0915020408040E1F700C0D9
S113048000008FE99FE00197F1F700C000008D2F75
S11304900E945C0085B38C2785BB9FEF23EC89E029
S11304A0915020408040E1F700C000008FE99FE0B8
S11304B00197F1F700C000000E94450085B3C827EA
S11304C0C5BB9FEF23EC89E0915020408040E1F7C9
S11304D000C00000DF91CF910895CF93DF93C82F20
S11304E0D62F0E9445008FE99FE00197F1F700C0E5
S11304F000008C2F0E9450008FE99FE00197F1F7D4
S113050000C000008D2F0E945C008FE99FE00197DE
S1130510F1F700C000000E9468008FE99FE0019796
S1130520F1F700C000008C2F81600E9473008FE9F6
S11305309FE00197F1F700C000000E947F00D82FD0
S11305408FE99FE00197F1F700C000000E947F004F
S1130550C82F8FE99FE00197F1F700C000000E94C7
S11305607F008FE99FE00197F1F700C000000E942F
S11305708B006C2F70E0762F66276D0F711D072E90
S1130580000C880B990B0E946603DF91CF910895AC
S11305905058BB27AA270E94E0020C94B8030E947B
S11305A0AA0338F00E94B10320F039F49F3F19F4F4
S11305B026F40C94A7030EF4E095E7FB0C94A10336
S11305C0E92F0E94C90358F3BA1762077307840717
S11305D0950720F079F4A6F50C94EB030EF4E0955E
S11305E00B2EBA2FA02D0B01B90190010C01CA01E9
S11305F0A0011124FF27591B99F0593F50F4503E94
S113060068F11A16F040A22F232F342F4427585F85
S1130610F3CF469537952795A795F0405395C9F79D
S11306207EF41F16BA0B620B730B840BBAF0915055
S1130630A1F0FF0FBB1F661F771F881FC2F70EC0F4
S1130640BA0F621F731F841F48F4879577956795C7
S1130650B795F7959E3F08F0B0CF9395880F08F0B3
S11306609927EE0F9795879508950E94D10388F0F6
S11306709F5798F0B92F9927B751B0F0E1F0660F62
S1130680771F881F991F1AF0BA95C9F714C0B130A3
S113069091F00E94EB03B1E008950C94EB03672FF3
S11306A0782F8827B85F39F0B93FCCF386957795D2
S11306B06795B395D9F73EF49095809570956195BB
S11306C07F4F8F4F9F4F0895E89409C097FB3EF4E6
S11306D090958095709561957F4F8F4F9F4F99238B
S11306E0A9F0F92F96E9BB279395F6958795779509
S11306F06795B795F111F8CFFAF4BB0F11F460FFC9
S11307001BC06F5F7F4F8F4F9F4F16C0882311F020
S113071096E911C0772321F09EE8872F762F05C034
S1130720662371F096E8862F70E060E02AF09A95CF
S1130730660F771F881FDAF7880F9695879597F9C4
S1130740089597F99F6780E870E060E008959FEF4F
S113075080EC089500240A94161617061806090654
S1130760089500240A941216130614060506089523
S1130770092E0394000C11F4882352F0BB0F40F4AB
S1130780BF2B11F460FF04C06F5F7F4F8F4F9F4FEB
S1130790089557FD9058440F551F59F05F3F71F06D
S11307A04795880F97FB991F61F09F3F79F08795D4
S11307B00895121613061406551FF2CF4695F1DF5D
S11307C008C0161617061806991FF1CF86957105ED
S11307D0610508940895E894BB2766277727CB0121
S11307E097F908950E9405040C94B8030E94AA0383
S11307F038F00E94B10320F0952311F00C94A1036A
S11308000C94A70311240C94EC030E94C90370F305
S1130810959FC1F3950F50E0551F629FF001729FA1
S1130820BB27F00DB11D639FAA27F00DB11DAA1FB0
S1130830649F6627B00DA11D661F829F2227B00DFD
S1130840A11D621F739FB00DA11D621F839FA00D88
S1130850611D221F749F3327A00D611D231F849FD8
S1130860600D211D822F762F6A2F11249F5750402F
S11308709AF0F1F088234AF0EE0FFF1FBB1F661FAA
S1130880771F881F91505040A9F79E3F510580F073
S11308900C94A1030C94EC035F3FE4F3983ED4F36F
S11308A0869577956795B795F795E7959F5FC1F717
S11308B0FE2B880F911D9695879597F90895A29F11
S11308C0B001B39FC001A39F700D811D1124911D20
S11308D0B29F700D811D1124911D0895F894FFCFCE
S11308E068656C6C6F007468652074656D703D207C
S10508F0000002
S9030000FC
